:100000000C944E000C946D000C946D000C946D00DB
:100010000C946D000C946D000C946D000C946D00AC
:100020000C946D000C946D000C946D000C946D009C
:100030000C946D000C94E6000C946D000C946D0013
:100040000C946D000C946D000C946D000C946D007C
:100050000C946D000C946D000C946D000C946D006C
:100060000C946D000C946D000C946D000C946D005C
:100070000C946D000C946D000C946D000C946D004C
:100080000C946D000C946D000C946D005E03650380
:100090006C0373037A03810388038F0311241FBE4B
:1000A000CFEFD0E4DEBFCDBF11E0A0E0B1E0E8EEDD
:1000B000FAE000E00BBF02C007900D92A231B10739
:1000C000D9F721E0A2E1B1E001C01D92A332B2074D
:1000D000E1F70E94A9030C9472050C940000CF93E1
:1000E000DF9300D01F92CDB7DEB789837B836A830D
:1000F00089818A3031F48A819B81BC018DE00E9424
:100100006F0080EC90E0FC018081882F90E080728D
:100110009927892BB1F386EC90E02981FC0120839B
:1001200080E090E00F900F900F90DF91CF910895B5
:10013000CF93DF93CDB7DEB781E890E02BE0FC01F1
:10014000208388E890E02DE730E0FC0131832083B4
:100150008FE690E022E0FC01208384E890E0FC013F
:100160001182108280910E0190910F01A0911001D7
:10017000B09111018093130190931401A093150184
:10018000B09316018FE590E02FE530E0F901208172
:100190002068FC0120830000DF91CF910895CF9368
:1001A000DF93CDB7DEB781E890E0FC01108200005C
:1001B000DF91CF910895CF93DF93CDB7DEB781E084
:1001C000809312010000DF91CF9108951F920F924A
:1001D00000905F000F92112400905B000F922F930C
:1001E0003F934F935F936F937F938F939F93AF93BF
:1001F000BF93EF93FF93CF93DF93CDB7DEB780919B
:10020000130190911401A0911501B091160101976D
:10021000A109B1098093130190931401A0931501D2
:10022000B09316018091130190911401A0911501D2
:10023000B0911601892B8A2B8B2B91F40E94DB0045
:1002400080910E0190910F01A0911001B0911101C8
:100250008093130190931401A0931501B09316019C
:100260000000DF91CF91FF91EF91BF91AF919F91EE
:100270008F917F916F915F914F913F912F910F904F
:1002800000925B000F9000925F000F901F901895F6
:10029000CF93DF9300D000D0CDB7DEB769837A83E8
:1002A0008B839C8389819A81AB81BC8180930E0171
:1002B00090930F01A0931001B093110180910E0152
:1002C00090910F01A0911001B09111018093130141
:1002D00090931401A0931501B093160100000F90A4
:1002E0000F900F900F90DF91CF9108950F931F9370
:1002F000CF93DF9300D000D0CDB7DEB769837A8388
:100300008B839C8380911B0190911C01A0911D0106
:10031000B0911E019C01AD0169817A818B819C8124
:100320000E94DE03882309F477C020E030E0A901B1
:1003300069817A818B819C810E94DE03882351F43C
:1003400081E990E021E930E0F90120812870FC0189
:10035000208309C081E990E021E930E0F9012081A2
:100360002360FC01208328E539E344E75FE36981EA
:100370007A818B819C810E94DE03882344F488E982
:1003800090E02FEF3FEFFC013183208334C020E069
:1003900034E244EF56E469817A818B819C810E942A
:1003A0000005181634F488E990E0FC0111821082EF
:1003B00022C008E910E020E030E040E053E4698129
:1003C0007A818B819C810E940505DC01CB019C0117
:1003D000AD0160E074E284EF9AE40E94E303DC0183
:1003E000CB01BC01CD010E945504DC01CB0101977A
:1003F000F8019183808384E990E0FC0111821082EE
:1004000089819A81AB81BC8180931B0190931C01EF
:10041000A0931D01B0931E0100000F900F900F904C
:100420000F90DF91CF911F910F910895CF93DF939C
:10043000CDB7DEB780E990E020E4FC01208381E9BC
:1004400090E02BE0FC01208360E070E0CB010E9493
:1004500076010000DF91CF910895CF93DF93CDB760
:10046000DEB780E990E0FC01108281E990E0FC01B8
:1004700010820000DF91CF910895CF93DF93CDB725
:10048000DEB780E290E0FC018081882F90E08095CB
:1004900090959927909318018093170180911F01DF
:1004A000909120018130910581F08130910530F0EB
:1004B0008230910589F00397D1F1C5C081E090E0C9
:1004C0009093200180931F01C6C082E090E090933A
:1004D000200180931F01BFC08091170190911801E6
:1004E000019799F48091210190912201892B69F45F
:1004F00083E090E09093200180931F0181E090E0E1
:100500009093220180932101A3C0809117019091C3
:100510001801892B09F09CC082E090E090932001A3
:1005200080931F01109222011092210191C08091AD
:10053000170190911801019799F4809121019091F0
:100540002201892B69F482E090E09093200180934E
:100550001F0181E090E0909322018093210123C04C
:100560008091170190911801019769F48091210100
:1005700090912201019739F483E090E0909320015B
:1005800080931F0110C08091170190911801892B51
:1005900051F483E090E09093200180931F0110922A
:1005A00022011092210180911F0190912001039757
:1005B00011F580911701909118010297E1F4809153
:1005C0002101909122010297B1F08091190190913F
:1005D0001A01892B49F08091190190911A01019714
:1005E00090931A018093190182E090E09093220188
:1005F000809321012FC080911F01909120010397CA
:1006000049F58091170190911801049719F580918F
:100610002101909122010397E9F0809119019091B5
:100620001A01079748F48091190190911A010196D7
:1006300090931A018093190183E090E09093220136
:100640008093210107C01092200110921F0103C066
:10065000000001C0000080911F01909120018130B5
:10066000910551F08130910508F46CC082309105FC
:1006700051F0039771F069C00E9416021092220196
:100680001092210162C060E070E0CB010E9476010F
:100690005CC08091190190911A01CC01A0E0B0E0FA
:1006A00040E050E027E030E0841B950B2817390725
:1006B000E8F18A5B9F4FFC010C94D50364EA70ED6E
:1006C00082E893E40E94760132C06BE774ED82E920
:1006D00093E40E9476012BC064EA70ED84EA93E40F
:1006E0000E94760124C061E77DE98EEA93E40E94CE
:1006F00076011DC060E070E084EC93E40E94760116
:1007000016C060E070E08CED93E40E9476010FC0AB
:1007100064EA70EF86EF93E40E94760108C060E01F
:1007200070ED82E094E40E94760101C000008091A7
:10073000170190911801892B39F41092220110921F
:10074000210102C0000001C000000000DF91CF9134
:100750000895CF93DF93CDB7DEB781E290E0FC013F
:10076000108282E290E02FEFFC01208384E290E08F
:100770002FEFFC01208385E290E0FC01108262E310
:1007800070E080E090E00E9448010E949800109282
:10079000200110921F010E943D0200008091120171
:1007A0008823E1F310921201F6CFEE0FFF1F002411
:1007B000001C0BBE0790F691E02D09940E948B045B
:1007C00008F481E008950E94F7030C94C6040E9487
:1007D000BF0458F00E94B80440F029F45F3F29F0AC
:1007E0000C94AF0451110C94FA040C94B5040E94BB
:1007F000D70468F39923B1F3552391F3951B550B57
:10080000BB27AA2762177307840738F09F5F5F4FE3
:10081000220F331F441FAA1FA9F335D00E2E3AF022
:10082000E0E832D091505040E695001CCAF72BD03A
:10083000FE2F29D0660F771F881FBB1F261737078B
:100840004807AB07B0E809F0BB0B802DBF01FF27BD
:1008500093585F4F3AF09E3F510578F00C94AF04E7
:100860000C94FA045F3FE4F3983ED4F386957795B1
:100870006795B795F7959F5FC9F7880F911D969576
:10088000879597F90895E1E0660F771F881FBB1FD2
:10089000621773078407BA0720F0621B730B840B7F
:1008A000BA0BEE1F88F7E09508950E945C046894E7
:1008B000B1110C94FA0408950E94DF0488F09F5748
:1008C00098F0B92F9927B751B0F0E1F0660F771F74
:1008D000881F991F1AF0BA95C9F714C0B13091F06A
:1008E0000E94F904B1E008950C94F904672F782F61
:1008F0008827B85F39F0B93FCCF38695779567952F
:10090000B395D9F73EF490958095709561957F4F9A
:100910008F4F9F4F0895990F0008550FAA0BE0E8DD
:10092000FEEF16161706E807F907C0F012161306B1
:10093000E407F50798F0621B730B840B950B39F4F1
:100940000A2661F0232B242B252B21F408950A2657
:1009500009F4A140A6958FEF811D811D089597F997
:100960009F6780E870E060E008959FEF80EC089555
:1009700000240A941616170618060906089500247E
:100980000A9412161306140605060895092E0394F8
:10099000000C11F4882352F0BB0F40F4BF2B11F46C
:1009A00060FF04C06F5F7F4F8F4F9F4F089557FDCB
:1009B0009058440F551F59F05F3F71F04795880FCD
:1009C00097FB991F61F09F3F79F087950895121664
:1009D00013061406551FF2CF4695F1DF08C0161610
:1009E00017061806991FF1CF8695710561050894C1
:1009F0000895E894BB2766277727CB0197F90895D8
:100A00000E948B0408F48FEF08950E9418050C943F
:100A1000C6040E94B80438F00E94BF0420F0952359
:100A200011F00C94AF040C94B50411240C94FA0446
:100A30000E94D70470F3959FC1F3950F50E0551FA6
:100A4000629FF001729FBB27F00DB11D639FAA2723
:100A5000F00DB11DAA1F649F6627B00DA11D661F72
:100A6000829F2227B00DA11D621F739FB00DA11D93
:100A7000621F839FA00D611D221F749F3327A00D4D
:100A8000611D231F849F600D211D822F762F6A2FE9
:100A900011249F5750409AF0F1F088234AF0EE0F4E
:100AA000FF1FBB1F661F771F881F91505040A9F77B
:100AB0009E3F510580F00C94AF040C94FA045F3F04
:100AC000E4F3983ED4F3869577956795B795F795B7
:100AD000E7959F5FC1F7FE2B880F911D969587952F
:080AE00097F90895F894FFCF87
:100AE80000000002000000006F000000000001008C
:020AF8000000FC
:00000001FF
