:100000000C9446000C9465000C9465000C946500FB
:100010000C9465000C9465000C9465000C946500CC
:100020000C9465000C9465000C9465000C946500BC
:100030000C9465000C94DE000C9465000C94650033
:100040000C9465000C9465000C9465000C9465009C
:100050000C9465000C9465000C9465000C9465008C
:100060000C9465000C9465000C9465000C9465007C
:100070000C9465000C9465000C9465000C9465006C
:100080000C9465000C9465000C94650011241FBE4F
:10009000CFEFD0E4DEBFCDBF11E0A0E0B1E0E4E5FA
:1000A000F8E000E00BBF02C007900D92A231B1074B
:1000B000D9F721E0A2E1B1E001C01D92AF31B20752
:1000C000E1F70E9468020C9428040C940000CF937E
:1000D000DF9300D01F92CDB7DEB789837B836A831D
:1000E00089818A3031F48A819B81BC018DE00E9434
:1000F000670080EC90E0FC018081882F90E08072A6
:100100009927892BB1F386EC90E02981FC012083AB
:1001100080E090E00F900F900F90DF91CF910895C5
:10012000CF93DF93CDB7DEB781E890E02BE0FC0101
:10013000208388E890E02DE730E0FC0131832083C4
:100140008FE690E022E0FC01208384E890E0FC014F
:100150001182108280910E0190910F01A0911001E7
:10016000B09111018093130190931401A093150194
:10017000B09316018FE590E02FE530E0F901208182
:100180002068FC0120830000DF91CF910895CF9378
:10019000DF93CDB7DEB781E890E0FC01108200006C
:1001A000DF91CF910895CF93DF93CDB7DEB781E094
:1001B000809312010000DF91CF9108951F920F925A
:1001C00000905F000F92112400905B000F922F931C
:1001D0003F934F935F936F937F938F939F93AF93CF
:1001E000BF93EF93FF93CF93DF93CDB7DEB78091AB
:1001F000130190911401A0911501B091160101977E
:10020000A109B1098093130190931401A0931501E2
:10021000B09316018091130190911401A0911501E2
:10022000B0911601892B8A2B8B2B91F40E94D3005D
:1002300080910E0190910F01A0911001B0911101D8
:100240008093130190931401A0931501B0931601AC
:100250000000DF91CF91FF91EF91BF91AF919F91FE
:100260008F917F916F915F914F913F912F910F905F
:1002700000925B000F9000925F000F901F90189506
:10028000CF93DF9300D000D0CDB7DEB769837A83F8
:100290008B839C8389819A81AB81BC8180930E0181
:1002A00090930F01A0931001B093110180910E0162
:1002B00090910F01A0911001B09111018093130151
:1002C00090931401A0931501B093160100000F90B4
:1002D0000F900F900F90DF91CF9108950F931F9380
:1002E000CF93DF9300D000D0CDB7DEB769837A8398
:1002F0008B839C838091190190911A01A0911B011D
:10030000B0911C019C01AD0169817A818B819C8136
:100310000E949402882309F476C020E030E0A9010D
:1003200069817A818B819C810E949402882351F497
:1003300081E990E021E930E0F90120812870FC0199
:10034000208309C081E990E021E930E0F9012081B2
:100350002360FC01208320E030E0A90169817A81DB
:100360008B819C810E949402882341F088E990E06F
:100370002FEF3FEFFC013183208334C020E034E2D3
:1003800044EF56E469817A818B819C810E94B60397
:10039000181634F488E990E0FC011182108222C022
:1003A00008E910E020E030E040E053E469817A8120
:1003B0008B819C810E94BB03DC01CB019C01AD01C0
:1003C00060E074E284EF9AE40E949902DC01CB01C0
:1003D000BC01CD010E940B03DC01CB010197F801A8
:1003E0009183808384E990E0FC01118210828981ED
:1003F0009A81AB81BC818093190190931A01A093DB
:100400001B01B0931C0100000F900F900F900F90F4
:10041000DF91CF911F910F910895CF93DF93CDB7C7
:10042000DEB780E990E020E4FC01208381E990E0E0
:100430002BE0FC01208360E070E0CB010E946E01A4
:100440000000DF91CF910895CF93DF93CDB7DEB752
:1004500080E990E0FC01108281E990E0FC011082CB
:100460000000DF91CF910895CF93DF93CDB7DEB732
:1004700080E290E0FC018081882F90E09093180149
:100480008093170180911D0190911E01009719F032
:10049000019769F007C081E090E090931E0180937E
:1004A0001D0106C010921E0110921D0101C0000026
:1004B00080911D0190911E01009719F0019719F08C
:1004C00003C0000001C000000000DF91CF9108953B
:1004D000CF93DF93CDB7DEB781E290E0FC011082CD
:1004E00082E290E02FEFFC01208384E290E02FEF86
:1004F000FC01208385E290E0FC01108262E370E061
:1005000080E090E00E9440010E94900010921E0145
:1005100010921D010E943402000080911201882374
:10052000E1F310921201F6CF0E94410308F481E03A
:1005300008950E94AD020C947C030E94750358F04C
:100540000E946E0340F029F45F3F29F00C9465038C
:1005500051110C94B0030C946B030E948D0368F34B
:100560009923B1F3552391F3951B550BBB27AA276C
:1005700062177307840738F09F5F5F4F220F331FA6
:10058000441FAA1FA9F335D00E2E3AF0E0E832D06E
:1005900091505040E695001CCAF72BD0FE2F29D071
:1005A000660F771F881FBB1F261737074807AB0743
:1005B000B0E809F0BB0B802DBF01FF2793585F4FB8
:1005C0003AF09E3F510578F00C9465030C94B0030B
:1005D0005F3FE4F3983ED4F3869577956795B7959A
:1005E000F7959F5FC9F7880F911D9695879597F9A5
:1005F0000895E1E0660F771F881FBB1F621773071E
:100600008407BA0720F0621B730B840BBA0BEE1F32
:1006100088F7E09508950E9412036894B1110C9434
:10062000B00308950E94950388F09F5798F0B92F62
:100630009927B751B0F0E1F0660F771F881F991F17
:100640001AF0BA95C9F714C0B13091F00E94AF0307
:10065000B1E008950C94AF03672F782F8827B85F17
:1006600039F0B93FCCF3869577956795B395D9F76F
:100670003EF490958095709561957F4F8F4F9F4F79
:100680000895990F0008550FAA0BE0E8FEEF161623
:100690001706E807F907C0F012161306E407F50776
:1006A00098F0621B730B840B950B39F40A2661F0EA
:1006B000232B242B252B21F408950A2609F4A1408D
:1006C000A6958FEF811D811D089597F99F6780E89A
:1006D00070E060E008959FEF80EC089500240A9494
:1006E0001616170618060906089500240A9412160D
:1006F0001306140605060895092E0394000C11F440
:10070000882352F0BB0F40F4BF2B11F460FF04C0EC
:100710006F5F7F4F8F4F9F4F089557FD9058440F45
:10072000551F59F05F3F71F04795880F97FB991F50
:1007300061F09F3F79F0879508951216130614060D
:10074000551FF2CF4695F1DF08C01616170618069A
:10075000991FF1CF86957105610508940895E89475
:10076000BB2766277727CB0197F908950E9441039D
:1007700008F48FEF08950E94CE030C947C030E942E
:100780006E0338F00E94750320F0952311F00C944D
:1007900065030C946B0311240C94B0030E948D0329
:1007A00070F3959FC1F3950F50E0551F629FF001C4
:1007B000729FBB27F00DB11D639FAA27F00DB11DDD
:1007C000AA1F649F6627B00DA11D661F829F222766
:1007D000B00DA11D621F739FB00DA11D621F839FED
:1007E000A00D611D221F749F3327A00D611D231FC3
:1007F000849F600D211D822F762F6A2F11249F5711
:1008000050409AF0F1F088234AF0EE0FFF1FBB1F13
:10081000661F771F881F91505040A9F79E3F5105D2
:1008200080F00C9465030C94B0035F3FE4F3983EB2
:10083000D4F3869577956795B795F795E7959F5F7C
:10084000C1F7FE2B880F911D9695879597F908950E
:04085000F894FFCF4A
:10085400000000020000000067000000000001002A
:02086400000092
:00000001FF
