:100000000C9446000C9465000C9465000C946500FB
:100010000C9465000C9465000C9465000C946500CC
:100020000C9465000C9465000C9465000C946500BC
:100030000C9465000C94DE000C9465000C94650033
:100040000C9465000C9465000C9465000C9465009C
:100050000C9465000C9465000C9465000C9465008C
:100060000C9465000C9465000C9465000C9465007C
:100070000C9465000C9465000C9465000C9465006C
:100080000C9465000C9465000C94650011241FBE4F
:10009000CFEFD0E4DEBFCDBF11E0A0E0B1E0EEE2F3
:1000A000FAE000E00BBF02C007900D92A231B10749
:1000B000D9F721E0A2E1B1E001C01D92A132B2075F
:1000C000E1F70E9453030C9415050C940000CF93A4
:1000D000DF9300D01F92CDB7DEB789837B836A831D
:1000E00089818A3031F48A819B81BC018DE00E9434
:1000F000670080EC90E0FC018081882F90E08072A6
:100100009927892BB1F386EC90E02981FC012083AB
:1001100080E090E00F900F900F90DF91CF910895C5
:10012000CF93DF93CDB7DEB781E890E02BE0FC0101
:10013000208388E890E02DE730E0FC0131832083C4
:100140008FE690E022E0FC01208384E890E0FC014F
:100150001182108280910E0190910F01A0911001E7
:10016000B09111018093130190931401A093150194
:10017000B09316018FE590E02FE530E0F901208182
:100180002068FC0120830000DF91CF910895CF9378
:10019000DF93CDB7DEB781E890E0FC01108200006C
:1001A000DF91CF910895CF93DF93CDB7DEB781E094
:1001B000809312010000DF91CF9108951F920F925A
:1001C00000905F000F92112400905B000F922F931C
:1001D0003F934F935F936F937F938F939F93AF93CF
:1001E000BF93EF93FF93CF93DF93CDB7DEB78091AB
:1001F000130190911401A0911501B091160101977E
:10020000A109B1098093130190931401A0931501E2
:10021000B09316018091130190911401A0911501E2
:10022000B0911601892B8A2B8B2B91F40E94D3005D
:1002300080910E0190910F01A0911001B0911101D8
:100240008093130190931401A0931501B0931601AC
:100250000000DF91CF91FF91EF91BF91AF919F91FE
:100260008F917F916F915F914F913F912F910F905F
:1002700000925B000F9000925F000F901F90189506
:10028000CF93DF9300D000D0CDB7DEB769837A83F8
:100290008B839C8389819A81AB81BC8180930E0181
:1002A00090930F01A0931001B093110180910E0162
:1002B00090910F01A0911001B09111018093130151
:1002C00090931401A0931501B093160100000F90B4
:1002D0000F900F900F90DF91CF9108950F931F9380
:1002E000CF93DF9300D000D0CDB7DEB769837A8398
:1002F0008B839C838091190190911A01A0911B011D
:10030000B0911C019C01AD0169817A818B819C8136
:100310000E948103882309F477C020E030E0A9011E
:1003200069817A818B819C810E948103882351F4A9
:1003300081E990E021E930E0F90120812870FC0199
:10034000208309C081E990E021E930E0F9012081B2
:100350002360FC01208328E539E344E75FE36981FA
:100360007A818B819C810E948103882344F488E9EF
:1003700090E02FEF3FEFFC013183208334C020E079
:1003800034E244EF56E469817A818B819C810E943A
:10039000A304181634F488E990E0FC01118210825D
:1003A00022C008E910E020E030E040E053E4698139
:1003B0007A818B819C810E94A804DC01CB019C0185
:1003C000AD0160E074E284EF9AE40E948603DC01F0
:1003D000CB01BC01CD010E94F803DC01CB010197E8
:1003E000F8019183808384E990E0FC0111821082FE
:1003F00089819A81AB81BC818093190190931A0104
:10040000A0931B01B0931C0100000F900F900F9060
:100410000F90DF91CF911F910F910895CF93DF93AC
:10042000CDB7DEB780E990E020E4FC01208381E9CC
:1004300090E02BE0FC01208360E070E0CB010E94A3
:100440006E010000DF91CF910895CF93DF93CDB778
:10045000DEB780E990E0FC01108281E990E0FC01C8
:1004600010820000DF91CF910895CF93DF93CDB735
:10047000DEB780E290E0FC018081882F90E08095DB
:1004800090959927909318018093170180911D01F1
:1004900090911E018230910511F18330910528F46D
:1004A000009779F00197A1F090C08430910509F48C
:1004B0005CC08430910508F440C0059709F46DC014
:1004C00084C081E090E090931E0180931D0182C062
:1004D00082E090E090931E0180931D017BC080918B
:1004E000170190911801019739F483E090E09093FF
:1004F0001E0180931D016EC080911701909118011B
:10050000029739F484E090E090931E0180931D01DE
:1005100061C08091170190911801049739F485E02A
:1005200090E090931E0180931D0154C082E090E002
:1005300090931E0180931D014DC0809117019091F1
:100540001801019739F483E090E090931E018093A5
:100550001D0140C082E090E090931E0180931D0138
:100560001092200110921F0135C0809117019091C7
:100570001801029739F484E090E090931E01809373
:100580001D0128C082E090E090931E0180931D0120
:100590001092200110921F011DC0809117019091AF
:1005A0001801049739F485E090E090931E01809340
:1005B0001D0110C082E090E090931E0180931D0108
:1005C0001092200110921F0105C010921E0110927E
:1005D0001D01000080911D0190911E018230910546
:1005E000B9F08330910530F4009709F457C00197B2
:1005F00051F055C08430910549F18430910590F057
:100600000597C1F14CC01092200110921F0147C004
:100610001092200110921F0160E070E0CB010E9457
:100620006E013DC080911F0190912001019739F426
:1006300064EA70ED82E893E40E946E0130C081E0CC
:1006400090E09093200180931F0129C080911F01A9
:1006500090912001029739F46BE774ED82E993E4FD
:100660000E946E011CC082E090E090932001809374
:100670001F0115C080911F0190912001039739F44B
:1006800064EA70ED84EA93E40E946E0108C083E09E
:1006900090E09093200180931F0101C000000000B2
:1006A000DF91CF910895CF93DF93CDB7DEB781E28D
:1006B00090E0FC01108282E290E02FEFFC012083A9
:1006C00084E290E02FEFFC01208385E290E0FC01C2
:1006D000108262E370E080E090E00E9440010E949E
:1006E000900010921E0110921D010E940E020E94A5
:1006F00035020000809112018823E1F3109212016B
:10070000F6CF0E942E0408F481E008950E949A0317
:100710000C9469040E94620458F00E945B0440F04B
:1007200029F45F3F29F00C94520451110C949D045C
:100730000C9458040E947A0468F39923B1F355236A
:1007400091F3951B550BBB27AA27621773078407E4
:1007500038F09F5F5F4F220F331F441FAA1FA9F37A
:1007600035D00E2E3AF0E0E832D091505040E69568
:10077000001CCAF72BD0FE2F29D0660F771F881FC9
:10078000BB1F261737074807AB07B0E809F0BB0BBC
:10079000802DBF01FF2793585F4F3AF09E3F5105D0
:1007A00078F00C9452040C949D045F3FE4F3983E5F
:1007B000D4F3869577956795B795F7959F5FC9F7B9
:1007C000880F911D9695879597F90895E1E0660F3A
:1007D000771F881FBB1F621773078407BA0720F0B3
:1007E000621B730B840BBA0BEE1F88F7E09508951C
:1007F0000E94FF036894B1110C949D0408950E9417
:10080000820488F09F5798F0B92F9927B751B0F01C
:10081000E1F0660F771F881F991F1AF0BA95C9F784
:1008200014C0B13091F00E949C04B1E008950C9482
:100830009C04672F782F8827B85F39F0B93FCCF335
:10084000869577956795B395D9F73EF49095809501
:10085000709561957F4F8F4F9F4F0895990F0008B6
:10086000550FAA0BE0E8FEEF16161706E807F90782
:10087000C0F012161306E407F50798F0621B730B1D
:10088000840B950B39F40A2661F0232B242B252B9E
:1008900021F408950A2609F4A140A6958FEF811D41
:1008A000811D089597F99F6780E870E060E00895E2
:1008B0009FEF80EC089500240A9416161706180678
:1008C0000906089500240A94121613061406050654
:1008D0000895092E0394000C11F4882352F0BB0FE5
:1008E00040F4BF2B11F460FF04C06F5F7F4F8F4F48
:1008F0009F4F089557FD9058440F551F59F05F3F83
:1009000071F04795880F97FB991F61F09F3F79F031
:1009100087950895121613061406551FF2CF4695B3
:10092000F1DF08C0161617061806991FF1CF869535
:100930007105610508940895E894BB276627772719
:10094000CB0197F908950E942E0408F48FEF0895C3
:100950000E94BB040C9469040E945B0438F00E945E
:10096000620420F0952311F00C9452040C94580466
:1009700011240C949D040E947A0470F3959FC1F396
:10098000950F50E0551F629FF001729FBB27F00D3D
:10099000B11D639FAA27F00DB11DAA1F649F662792
:1009A000B00DA11D661F829F2227B00DA11D621FE1
:1009B000739FB00DA11D621F839FA00D611D221F9B
:1009C000749F3327A00D611D231F849F600D211D7F
:1009D000822F762F6A2F11249F5750409AF0F1F002
:1009E00088234AF0EE0FFF1FBB1F661F771F881F6B
:1009F00091505040A9F79E3F510580F00C9452044D
:100A00000C949D045F3FE4F3983ED4F3869577956C
:100A10006795B795F795E7959F5FC1F7FE2B880F10
:0E0A2000911D9695879597F90895F894FFCF4C
:100A2E00000000020000000067000000000001004E
:020A3E000000B6
:00000001FF
