:100000000C9446000C9465000C9465000C946500FB
:100010000C9465000C9465000C9465000C946500CC
:100020000C9465000C9465000C9465000C946500BC
:100030000C9465000C94DE000C9465000C94650033
:100040000C9465000C9465000C9465000C9465009C
:100050000C9465000C9465000C9465000C9465008C
:100060000C9465000C9465000C9465000C9465007C
:100070000C9465000C9465000C9465000C9465006C
:100080000C9465000C9465000C94650011241FBE4F
:10009000CFEFD0E4DEBFCDBF11E0A0E0B1E0E0E8FB
:1000A000FAE000E00BBF02C007900D92A237B10743
:1000B000D9F721E0A2E7B1E001C01D92A738B2074D
:1000C000E1F70E947E030C943E050C940000CF9350
:1000D000DF9300D01F92CDB7DEB789837B836A831D
:1000E00089818A3031F48A819B81BC018DE00E9434
:1000F000670080EC90E0FC018081882F90E08072A6
:100100009927892BB1F386EC90E02981FC012083AB
:1001100080E090E00F900F900F90DF91CF910895C5
:10012000CF93DF93CDB7DEB781E890E02BE0FC0101
:10013000208388E890E02DE730E0FC0131832083C4
:100140008FE690E022E0FC01208384E890E0FC014F
:100150001182108280910E0190910F01A0911001E7
:10016000B09111018093730190937401A093750174
:10017000B09376018FE590E02FE530E0F901208122
:100180002068FC0120830000DF91CF910895CF9378
:10019000DF93CDB7DEB781E890E0FC01108200006C
:1001A000DF91CF910895CF93DF93CDB7DEB781E094
:1001B000809372010000DF91CF9108951F920F92FA
:1001C00000905F000F92112400905B000F922F931C
:1001D0003F934F935F936F937F938F939F93AF93CF
:1001E000BF93EF93FF93CF93DF93CDB7DEB78091AB
:1001F000730190917401A0917501B09176010197FE
:10020000A109B1098093730190937401A0937501C2
:10021000B09376018091730190917401A091750162
:10022000B0917601892B8A2B8B2B91F40E94D300FD
:1002300080910E0190910F01A0911001B0911101D8
:100240008093730190937401A0937501B09376012C
:100250000000DF91CF91FF91EF91BF91AF919F91FE
:100260008F917F916F915F914F913F912F910F905F
:1002700000925B000F9000925F000F901F90189506
:10028000CF93DF9300D000D0CDB7DEB769837A83F8
:100290008B839C8389819A81AB81BC8180930E0181
:1002A00090930F01A0931001B093110180910E0162
:1002B00090910F01A0911001B091110180937301F1
:1002C00090937401A0937501B093760100000F9094
:1002D0000F900F900F90DF91CF9108950F931F9380
:1002E000CF93DF9300D000D0CDB7DEB769837A8398
:1002F0008B839C8380917F0190918001A0918101EB
:10030000B09182019C01AD0169817A818B819C81D0
:100310000E94AA03882309F477C020E030E0A901F5
:1003200069817A818B819C810E94AA03882351F480
:1003300081E990E021E930E0F90120812870FC0199
:10034000208309C081E990E021E930E0F9012081B2
:100350002360FC01208328E539E344E75FE36981FA
:100360007A818B819C810E94AA03882344F488E9C6
:1003700090E02FEF3FEFFC013183208334C020E079
:1003800034E244EF56E469817A818B819C810E943A
:10039000CC04181634F488E990E0FC011182108234
:1003A00022C008E910E020E030E040E053E4698139
:1003B0007A818B819C810E94D104DC01CB019C015C
:1003C000AD0160E074E284EF9AE40E94AF03DC01C7
:1003D000CB01BC01CD010E942104DC01CB010197BE
:1003E000F8019183808384E990E0FC0111821082FE
:1003F00089819A81AB81BC8180937F019093800138
:10040000A0938101B093820100000F900F900F9094
:100410000F90DF91CF911F910F910895CF93DF93AC
:10042000CDB7DEB780E990E020E4FC01208381E9CC
:1004300090E02BE0FC01208360E070E0CB010E94A3
:100440006E010000DF91CF910895CF93DF93CDB778
:10045000DEB780E990E0FC01108281E990E0FC01C8
:1004600010820000DF91CF910895CF93DF93CDB735
:10047000DEB780E290E0FC018081882F90E08095DB
:1004800090959927909378018093770180918301CB
:100490009091840182309105F1F08330910528F428
:1004A000009759F0019781F0E1C08330910509F47C
:1004B00067C0049709F48EC0D9C081E090E09093A2
:1004C000840180938301D7C082E090E090938401FF
:1004D00080938301D0C0809177019091780101973A
:1004E00089F48091850190918601892B59F482E0ED
:1004F00090E0909384018093830110928601109282
:1005000085013DC08091770190917801019789F430
:100510008091850190918601019759F483E090E0E4
:10052000909384018093830110928601109285013B
:1005300026C08091770190917801892B99F4809160
:10054000850190918601892B69F483E090E0909376
:1005500084018093830181E090E0909386018093F1
:1005600085010DC082E090E0909384018093830127
:1005700081E090E090938601809385017CC07BC0F0
:100580008091790190917A01880F991F8E5B9E4F1F
:10059000FC01808191819C012150310980917D0174
:1005A00090917E012817390759F484E090E09093E8
:1005B00084018093830110927E0110927D015BC0C3
:1005C00080917D0190917E01019690937E018093B0
:1005D0007D0151C08091790190917A01880F991F16
:1005E000865A9E4FFC01808191819C0121503109E6
:1005F00080917B0190917C01821793076CF180912F
:10060000790190917A010B9799F482E090E09093B0
:1006100084018093830110927A01109279011092E3
:100620007E0110927D0110927C0110927B0123C00B
:1006300083E090E0909384018093830110927C0189
:1006400010927B018091790190917A0101969093AB
:100650007A01809379010FC080917B0190917C0198
:10066000019690937C0180937B0105C010928401D8
:100670001092830100008091830190918401823067
:100680009105B9F08330910528F4009791F1019715
:1006900039F030C08330910591F0049721F12AC0E0
:1006A0000E940E0281E090E0909386018093850184
:1006B00021C060E070E0CB010E946E011BC0809100
:1006C000790190917A01880F991F880F991F8E5E8A
:1006D0009E4FFC0180819181A281B381BC01CD013B
:1006E0000E946E0107C060E070E0CB010E946E01C5
:1006F00001C000000000DF91CF910895CF93DF93F8
:10070000CDB7DEB781E290E0FC01108282E290E09A
:100710002FEFFC01208384E290E02FEFFC01208387
:1007200085E290E0FC01108264E670E080E090E0F9
:100730000E9440010E949000109284011092830157
:100740000E9435020000809172018823E1F310922B
:100750007201F6CF0E94570408F481E008950E94C8
:10076000C3030C9492040E948B0458F00E948404EA
:1007700040F029F45F3F29F00C947B0451110C9454
:10078000C6040C9481040E94A30468F39923B1F376
:10079000552391F3951B550BBB27AA2762177307A7
:1007A000840738F09F5F5F4F220F331F441FAA1F3B
:1007B000A9F335D00E2E3AF0E0E832D091505040F7
:1007C000E695001CCAF72BD0FE2F29D0660F771FA5
:1007D000881FBB1F261737074807AB07B0E809F08B
:1007E000BB0B802DBF01FF2793585F4F3AF09E3F10
:1007F000510578F00C947B040C94C6045F3FE4F33D
:10080000983ED4F3869577956795B795F7959F5F52
:10081000C9F7880F911D9695879597F90895E1E09E
:10082000660F771F881FBB1F621773078407BA07FD
:1008300020F0621B730B840BBA0BEE1F88F7E09558
:1008400008950E9428046894B1110C94C604089578
:100850000E94AB0488F09F5798F0B92F9927B751A1
:10086000B0F0E1F0660F771F881F991F1AF0BA9554
:10087000C9F714C0B13091F00E94C504B1E00895E9
:100880000C94C504672F782F8827B85F39F0B93FDB
:10089000CCF3869577956795B395D9F73EF4909507
:1008A0008095709561957F4F8F4F9F4F0895990F59
:1008B0000008550FAA0BE0E8FEEF16161706E8072A
:1008C000F907C0F012161306E407F50798F0621B4B
:1008D000730B840B950B39F40A2661F0232B242B20
:1008E000252B21F408950A2609F4A140A6958FEF3F
:1008F000811D811D089597F99F6780E870E060E091
:1009000008959FEF80EC089500240A9416161706A8
:1009100018060906089500240A94121613061406F0
:1009200005060895092E0394000C11F4882352F053
:10093000BB0F40F4BF2B11F460FF04C06F5F7F4F0B
:100940008F4F9F4F089557FD9058440F551F59F0F2
:100950005F3F71F04795880F97FB991F61F09F3FAC
:1009600079F087950895121613061406551FF2CFD5
:100970004695F1DF08C0161617061806991FF1CF25
:1009800086957105610508940895E894BB2766274C
:100990007727CB0197F908950E94570408F48FEF49
:1009A00008950E94E4040C9492040E94840438F098
:1009B0000E948B0420F0952311F00C947B040C947E
:1009C000810411240C94C6040E94A30470F3959F23
:1009D000C1F3950F50E0551F629FF001729FBB2736
:1009E000F00DB11D639FAA27F00DB11DAA1F649FD2
:1009F0006627B00DA11D661F829F2227B00DA11D85
:100A0000621F739FB00DA11D621F839FA00D611D0A
:100A1000221F749F3327A00D611D231F849F600D2B
:100A2000211D822F762F6A2F11249F5750409AF054
:100A3000F1F088234AF0EE0FFF1FBB1F661F771FE0
:100A4000881F91505040A9F79E3F510580F00C94AB
:100A50007B040C94C6045F3FE4F3983ED4F3869580
:100A600077956795B795F795E7959F5FC1F7FE2B4B
:100A7000880F911D9695879597F90895F894FFCF63
:100A800000000002000000006700000000000100FC
:100A90000000A4D08243A4D08243719DAE430000E5
:100AA000C4430000DC430000DC430000DC430000E2
:100AB000DC43719DAE43A4D0A443719DAE43A4D04A
:100AC000A44308000800020002000300050005001E
:100AD00003000200030003000500080008000500F1
:100AE00003000300030003000300030002000500ED
:020AF0000500FF
:00000001FF
